{
  "_format": "hh-sol-artifact-1",
  "contractName": "Drive",
  "sourceName": "contracts/Drive.sol",
  "abi": [
    {
      "inputs": [
        {
          "internalType": "string",
          "name": "",
          "type": "string"
        },
        {
          "internalType": "uint256",
          "name": "",
          "type": "uint256"
        }
      ],
      "name": "access",
      "outputs": [
        {
          "internalType": "address",
          "name": "",
          "type": "address"
        }
      ],
      "stateMutability": "view",
      "type": "function"
    },
    {
      "inputs": [
        {
          "internalType": "string",
          "name": "",
          "type": "string"
        }
      ],
      "name": "fileOwners",
      "outputs": [
        {
          "internalType": "address",
          "name": "",
          "type": "address"
        }
      ],
      "stateMutability": "view",
      "type": "function"
    },
    {
      "inputs": [
        {
          "internalType": "address",
          "name": "",
          "type": "address"
        },
        {
          "internalType": "uint256",
          "name": "",
          "type": "uint256"
        }
      ],
      "name": "ownedFiles",
      "outputs": [
        {
          "internalType": "string",
          "name": "",
          "type": "string"
        }
      ],
      "stateMutability": "view",
      "type": "function"
    },
    {
      "inputs": [
        {
          "internalType": "address",
          "name": "user",
          "type": "address"
        },
        {
          "internalType": "string",
          "name": "file",
          "type": "string"
        }
      ],
      "name": "revokeAccess",
      "outputs": [],
      "stateMutability": "nonpayable",
      "type": "function"
    },
    {
      "inputs": [
        {
          "internalType": "address",
          "name": "user",
          "type": "address"
        },
        {
          "internalType": "string",
          "name": "file",
          "type": "string"
        }
      ],
      "name": "shareFile",
      "outputs": [],
      "stateMutability": "nonpayable",
      "type": "function"
    },
    {
      "inputs": [
        {
          "internalType": "address",
          "name": "",
          "type": "address"
        },
        {
          "internalType": "uint256",
          "name": "",
          "type": "uint256"
        }
      ],
      "name": "sharedFiles",
      "outputs": [
        {
          "internalType": "string",
          "name": "",
          "type": "string"
        }
      ],
      "stateMutability": "view",
      "type": "function"
    },
    {
      "inputs": [
        {
          "internalType": "address",
          "name": "newOwner",
          "type": "address"
        },
        {
          "internalType": "string",
          "name": "file",
          "type": "string"
        }
      ],
      "name": "transfer",
      "outputs": [],
      "stateMutability": "nonpayable",
      "type": "function"
    },
    {
      "inputs": [
        {
          "internalType": "string",
          "name": "url",
          "type": "string"
        }
      ],
      "name": "uploadFile",
      "outputs": [],
      "stateMutability": "nonpayable",
      "type": "function"
    },
    {
      "inputs": [
        {
          "internalType": "string",
          "name": "file",
          "type": "string"
        }
      ],
      "name": "viewAccessList",
      "outputs": [
        {
          "internalType": "address[]",
          "name": "",
          "type": "address[]"
        }
      ],
      "stateMutability": "view",
      "type": "function"
    },
    {
      "inputs": [],
      "name": "viewOwnedFiles",
      "outputs": [
        {
          "internalType": "string[]",
          "name": "",
          "type": "string[]"
        }
      ],
      "stateMutability": "view",
      "type": "function"
    },
    {
      "inputs": [],
      "name": "viewSharedFiles",
      "outputs": [
        {
          "internalType": "string[]",
          "name": "",
          "type": "string[]"
        }
      ],
      "stateMutability": "view",
      "type": "function"
    }
  ],
  "bytecode": "0x608060405234801561000f575f80fd5b506120c48061001d5f395ff3fe608060405234801561000f575f80fd5b50600436106100a7575f3560e01c806382b51b581161006f57806382b51b58146101735780638a09c914146101915780639ce01e98146101c1578063b830facb146101df578063dfa36d5b1461020f578063e37ffc301461022b576100a7565b806309886649146100ab57806356041432146100c7578063600d33c8146100f75780636a44cac91461012757806371fa46db14610143575b5f80fd5b6100c560048036038101906100c09190611670565b610247565b005b6100e160048036038101906100dc91906116fd565b6106d5565b6040516100ee91906117b5565b60405180910390f35b610111600480360381019061010c91906116fd565b610786565b60405161011e91906117b5565b60405180910390f35b610141600480360381019061013c9190611670565b610837565b005b61015d600480360381019061015891906117d5565b610e7a565b60405161016a919061183e565b60405180910390f35b61017b610eda565b604051610188919061195a565b60405180910390f35b6101ab60048036038101906101a6919061197a565b610fe9565b6040516101b89190611a78565b60405180910390f35b6101c9611092565b6040516101d6919061195a565b60405180910390f35b6101f960048036038101906101f4919061197a565b6111a1565b604051610206919061183e565b60405180910390f35b61022960048036038101906102249190611670565b6111e8565b005b6102456004803603810190610240919061197a565b61137f565b005b5f816040516102569190611ad2565b90815260200160405180910390205f9054906101000a900473ffffffffffffffffffffffffffffffffffffffff1673ffffffffffffffffffffffffffffffffffffffff163373ffffffffffffffffffffffffffffffffffffffff16146102f1576040517f08c379a00000000000000000000000000000000000000000000000000000000081526004016102e890611b32565b60405180910390fd5b815f826040516103019190611ad2565b90815260200160405180910390205f6101000a81548173ffffffffffffffffffffffffffffffffffffffff021916908373ffffffffffffffffffffffffffffffffffffffff1602179055505f805f5b60015f3373ffffffffffffffffffffffffffffffffffffffff1673ffffffffffffffffffffffffffffffffffffffff1681526020019081526020015f20805490508110156104ac576104888460015f3373ffffffffffffffffffffffffffffffffffffffff1673ffffffffffffffffffffffffffffffffffffffff1681526020019081526020015f2083815481106103eb576103ea611b50565b5b905f5260205f200180546103fe90611baa565b80601f016020809104026020016040519081016040528092919081815260200182805461042a90611baa565b80156104755780601f1061044c57610100808354040283529160200191610475565b820191905f5260205f20905b81548152906001019060200180831161045857829003601f168201915b505050505061144a90919063ffffffff16565b1561049957600191508092506104ac565b80806104a490611c07565b915050610350565b5060011515811515146104f4576040517f08c379a00000000000000000000000000000000000000000000000000000000081526004016104eb90611b32565b60405180910390fd5b60015f3373ffffffffffffffffffffffffffffffffffffffff1673ffffffffffffffffffffffffffffffffffffffff1681526020019081526020015f206001805f3373ffffffffffffffffffffffffffffffffffffffff1673ffffffffffffffffffffffffffffffffffffffff1681526020019081526020015f208054905061057d9190611c4e565b8154811061058e5761058d611b50565b5b905f5260205f200160015f3373ffffffffffffffffffffffffffffffffffffffff1673ffffffffffffffffffffffffffffffffffffffff1681526020019081526020015f2083815481106105e5576105e4611b50565b5b905f5260205f200190816105f99190611e45565b5060015f3373ffffffffffffffffffffffffffffffffffffffff1673ffffffffffffffffffffffffffffffffffffffff1681526020019081526020015f2080548061064757610646611f2a565b5b600190038181905f5260205f20015f6106609190611471565b905560015f8573ffffffffffffffffffffffffffffffffffffffff1673ffffffffffffffffffffffffffffffffffffffff1681526020019081526020015f2083908060018154018082558091505060019003905f5260205f20015f9091909190915090816106ce9190611f57565b5050505050565b6003602052815f5260405f2081815481106106ee575f80fd5b905f5260205f20015f9150915050805461070790611baa565b80601f016020809104026020016040519081016040528092919081815260200182805461073390611baa565b801561077e5780601f106107555761010080835404028352916020019161077e565b820191905f5260205f20905b81548152906001019060200180831161076157829003601f168201915b505050505081565b6001602052815f5260405f20818154811061079f575f80fd5b905f5260205f20015f915091505080546107b890611baa565b80601f01602080910402602001604051908101604052809291908181526020018280546107e490611baa565b801561082f5780601f106108065761010080835404028352916020019161082f565b820191905f5260205f20905b81548152906001019060200180831161081257829003601f168201915b505050505081565b5f816040516108469190611ad2565b90815260200160405180910390205f9054906101000a900473ffffffffffffffffffffffffffffffffffffffff1673ffffffffffffffffffffffffffffffffffffffff163373ffffffffffffffffffffffffffffffffffffffff16146108e1576040517f08c379a00000000000000000000000000000000000000000000000000000000081526004016108d890611b32565b60405180910390fd5b5f805f5b6002846040516108f59190611ad2565b9081526020016040518091039020805490508110156109b7578473ffffffffffffffffffffffffffffffffffffffff166002856040516109359190611ad2565b9081526020016040518091039020828154811061095557610954611b50565b5b905f5260205f20015f9054906101000a900473ffffffffffffffffffffffffffffffffffffffff1673ffffffffffffffffffffffffffffffffffffffff16036109a457809250600191506109b7565b80806109af90611c07565b9150506108e5565b5060011515811515146109ff576040517f08c379a00000000000000000000000000000000000000000000000000000000081526004016109f690612070565b60405180910390fd5b600283604051610a0f9190611ad2565b90815260200160405180910390206001600285604051610a2f9190611ad2565b908152602001604051809103902080549050610a4b9190611c4e565b81548110610a5c57610a5b611b50565b5b905f5260205f20015f9054906101000a900473ffffffffffffffffffffffffffffffffffffffff16600284604051610a949190611ad2565b90815260200160405180910390208381548110610ab457610ab3611b50565b5b905f5260205f20015f6101000a81548173ffffffffffffffffffffffffffffffffffffffff021916908373ffffffffffffffffffffffffffffffffffffffff160217905550600283604051610b099190611ad2565b9081526020016040518091039020805480610b2757610b26611f2a565b5b600190038181905f5260205f20015f6101000a81549073ffffffffffffffffffffffffffffffffffffffff021916905590555f91505f90505f5b60035f8673ffffffffffffffffffffffffffffffffffffffff1673ffffffffffffffffffffffffffffffffffffffff1681526020019081526020015f2080549050811015610cbd57610c998460035f8873ffffffffffffffffffffffffffffffffffffffff1673ffffffffffffffffffffffffffffffffffffffff1681526020019081526020015f208381548110610bfc57610bfb611b50565b5b905f5260205f20018054610c0f90611baa565b80601f0160208091040260200160405190810160405280929190818152602001828054610c3b90611baa565b8015610c865780601f10610c5d57610100808354040283529160200191610c86565b820191905f5260205f20905b815481529060010190602001808311610c6957829003601f168201915b505050505061144a90919063ffffffff16565b15610caa5780925060019150610cbd565b8080610cb590611c07565b915050610b61565b506001151581151514610d05576040517f08c379a0000000000000000000000000000000000000000000000000000000008152600401610cfc90612070565b60405180910390fd5b60035f8573ffffffffffffffffffffffffffffffffffffffff1673ffffffffffffffffffffffffffffffffffffffff1681526020019081526020015f20600160035f8773ffffffffffffffffffffffffffffffffffffffff1673ffffffffffffffffffffffffffffffffffffffff1681526020019081526020015f2080549050610d8f9190611c4e565b81548110610da057610d9f611b50565b5b905f5260205f200160035f8673ffffffffffffffffffffffffffffffffffffffff1673ffffffffffffffffffffffffffffffffffffffff1681526020019081526020015f208381548110610df757610df6611b50565b5b905f5260205f20019081610e0b9190611e45565b5060035f8573ffffffffffffffffffffffffffffffffffffffff1673ffffffffffffffffffffffffffffffffffffffff1681526020019081526020015f20805480610e5957610e58611f2a565b5b600190038181905f5260205f20015f610e729190611471565b905550505050565b6002828051602081018201805184825260208301602085012081835280955050505050508181548110610eab575f80fd5b905f5260205f20015f915091509054906101000a900473ffffffffffffffffffffffffffffffffffffffff1681565b606060035f3373ffffffffffffffffffffffffffffffffffffffff1673ffffffffffffffffffffffffffffffffffffffff1681526020019081526020015f20805480602002602001604051908101604052809291908181526020015f905b82821015610fe0578382905f5260205f20018054610f5590611baa565b80601f0160208091040260200160405190810160405280929190818152602001828054610f8190611baa565b8015610fcc5780601f10610fa357610100808354040283529160200191610fcc565b820191905f5260205f20905b815481529060010190602001808311610faf57829003601f168201915b505050505081526020019060010190610f38565b50505050905090565b6060600282604051610ffb9190611ad2565b908152602001604051809103902080548060200260200160405190810160405280929190818152602001828054801561108657602002820191905f5260205f20905b815f9054906101000a900473ffffffffffffffffffffffffffffffffffffffff1673ffffffffffffffffffffffffffffffffffffffff168152602001906001019080831161103d575b50505050509050919050565b606060015f3373ffffffffffffffffffffffffffffffffffffffff1673ffffffffffffffffffffffffffffffffffffffff1681526020019081526020015f20805480602002602001604051908101604052809291908181526020015f905b82821015611198578382905f5260205f2001805461110d90611baa565b80601f016020809104026020016040519081016040528092919081815260200182805461113990611baa565b80156111845780601f1061115b57610100808354040283529160200191611184565b820191905f5260205f20905b81548152906001019060200180831161116757829003601f168201915b5050505050815260200190600101906110f0565b50505050905090565b5f818051602081018201805184825260208301602085012081835280955050505050505f915054906101000a900473ffffffffffffffffffffffffffffffffffffffff1681565b5f816040516111f79190611ad2565b90815260200160405180910390205f9054906101000a900473ffffffffffffffffffffffffffffffffffffffff1673ffffffffffffffffffffffffffffffffffffffff163373ffffffffffffffffffffffffffffffffffffffff1614611292576040517f08c379a000000000000000000000000000000000000000000000000000000000815260040161128990611b32565b60405180910390fd5b6002816040516112a29190611ad2565b908152602001604051809103902082908060018154018082558091505060019003905f5260205f20015f9091909190916101000a81548173ffffffffffffffffffffffffffffffffffffffff021916908373ffffffffffffffffffffffffffffffffffffffff16021790555060035f8373ffffffffffffffffffffffffffffffffffffffff1673ffffffffffffffffffffffffffffffffffffffff1681526020019081526020015f2081908060018154018082558091505060019003905f5260205f20015f90919091909150908161137a9190611f57565b505050565b335f8260405161138f9190611ad2565b90815260200160405180910390205f6101000a81548173ffffffffffffffffffffffffffffffffffffffff021916908373ffffffffffffffffffffffffffffffffffffffff16021790555060015f3373ffffffffffffffffffffffffffffffffffffffff1673ffffffffffffffffffffffffffffffffffffffff1681526020019081526020015f2081908060018154018082558091505060019003905f5260205f20015f9091909190915090816114469190611f57565b5050565b5f81518351148015611469575081805190602001208380519060200120145b905092915050565b50805461147d90611baa565b5f825580601f1061148e57506114ab565b601f0160209004905f5260205f20908101906114aa91906114ae565b5b50565b5b808211156114c5575f815f9055506001016114af565b5090565b5f604051905090565b5f80fd5b5f80fd5b5f73ffffffffffffffffffffffffffffffffffffffff82169050919050565b5f611503826114da565b9050919050565b611513816114f9565b811461151d575f80fd5b50565b5f8135905061152e8161150a565b92915050565b5f80fd5b5f80fd5b5f601f19601f8301169050919050565b7f4e487b71000000000000000000000000000000000000000000000000000000005f52604160045260245ffd5b6115828261153c565b810181811067ffffffffffffffff821117156115a1576115a061154c565b5b80604052505050565b5f6115b36114c9565b90506115bf8282611579565b919050565b5f67ffffffffffffffff8211156115de576115dd61154c565b5b6115e78261153c565b9050602081019050919050565b828183375f83830152505050565b5f61161461160f846115c4565b6115aa565b9050828152602081018484840111156116305761162f611538565b5b61163b8482856115f4565b509392505050565b5f82601f83011261165757611656611534565b5b8135611667848260208601611602565b91505092915050565b5f8060408385031215611686576116856114d2565b5b5f61169385828601611520565b925050602083013567ffffffffffffffff8111156116b4576116b36114d6565b5b6116c085828601611643565b9150509250929050565b5f819050919050565b6116dc816116ca565b81146116e6575f80fd5b50565b5f813590506116f7816116d3565b92915050565b5f8060408385031215611713576117126114d2565b5b5f61172085828601611520565b9250506020611731858286016116e9565b9150509250929050565b5f81519050919050565b5f82825260208201905092915050565b5f5b83811015611772578082015181840152602081019050611757565b5f8484015250505050565b5f6117878261173b565b6117918185611745565b93506117a1818560208601611755565b6117aa8161153c565b840191505092915050565b5f6020820190508181035f8301526117cd818461177d565b905092915050565b5f80604083850312156117eb576117ea6114d2565b5b5f83013567ffffffffffffffff811115611808576118076114d6565b5b61181485828601611643565b9250506020611825858286016116e9565b9150509250929050565b611838816114f9565b82525050565b5f6020820190506118515f83018461182f565b92915050565b5f81519050919050565b5f82825260208201905092915050565b5f819050602082019050919050565b5f82825260208201905092915050565b5f61189a8261173b565b6118a48185611880565b93506118b4818560208601611755565b6118bd8161153c565b840191505092915050565b5f6118d38383611890565b905092915050565b5f602082019050919050565b5f6118f182611857565b6118fb8185611861565b93508360208202850161190d85611871565b805f5b85811015611948578484038952815161192985826118c8565b9450611934836118db565b925060208a01995050600181019050611910565b50829750879550505050505092915050565b5f6020820190508181035f83015261197281846118e7565b905092915050565b5f6020828403121561198f5761198e6114d2565b5b5f82013567ffffffffffffffff8111156119ac576119ab6114d6565b5b6119b884828501611643565b91505092915050565b5f81519050919050565b5f82825260208201905092915050565b5f819050602082019050919050565b6119f3816114f9565b82525050565b5f611a0483836119ea565b60208301905092915050565b5f602082019050919050565b5f611a26826119c1565b611a3081856119cb565b9350611a3b836119db565b805f5b83811015611a6b578151611a5288826119f9565b9750611a5d83611a10565b925050600181019050611a3e565b5085935050505092915050565b5f6020820190508181035f830152611a908184611a1c565b905092915050565b5f81905092915050565b5f611aac8261173b565b611ab68185611a98565b9350611ac6818560208601611755565b80840191505092915050565b5f611add8284611aa2565b915081905092915050565b7f596f7520617265206e6f7420746865206f776e6572206f662066696c650000005f82015250565b5f611b1c601d83611745565b9150611b2782611ae8565b602082019050919050565b5f6020820190508181035f830152611b4981611b10565b9050919050565b7f4e487b71000000000000000000000000000000000000000000000000000000005f52603260045260245ffd5b7f4e487b71000000000000000000000000000000000000000000000000000000005f52602260045260245ffd5b5f6002820490506001821680611bc157607f821691505b602082108103611bd457611bd3611b7d565b5b50919050565b7f4e487b71000000000000000000000000000000000000000000000000000000005f52601160045260245ffd5b5f611c11826116ca565b91507fffffffffffffffffffffffffffffffffffffffffffffffffffffffffffffffff8203611c4357611c42611bda565b5b600182019050919050565b5f611c58826116ca565b9150611c63836116ca565b9250828203905081811115611c7b57611c7a611bda565b5b92915050565b5f81549050611c8f81611baa565b9050919050565b5f819050815f5260205f209050919050565b5f819050815f5260205f209050919050565b5f6020601f8301049050919050565b5f82821b905092915050565b5f60088302611d047fffffffffffffffffffffffffffffffffffffffffffffffffffffffffffffffff82611cc9565b611d0e8683611cc9565b95508019841693508086168417925050509392505050565b5f819050919050565b5f611d49611d44611d3f846116ca565b611d26565b6116ca565b9050919050565b5f819050919050565b611d6283611d2f565b611d76611d6e82611d50565b848454611cd5565b825550505050565b5f90565b611d8a611d7e565b611d95818484611d59565b505050565b5b81811015611db857611dad5f82611d82565b600181019050611d9b565b5050565b601f821115611dfd57611dce81611c96565b611dd784611cba565b81016020851015611de6578190505b611dfa611df285611cba565b830182611d9a565b50505b505050565b5f82821c905092915050565b5f611e1d5f1984600802611e02565b1980831691505092915050565b5f611e358383611e0e565b9150826002028217905092915050565b818103611e53575050611f28565b611e5c82611c81565b67ffffffffffffffff811115611e7557611e7461154c565b5b611e7f8254611baa565b611e8a828285611dbc565b5f601f831160018114611eb7575f8415611ea5578287015490505b611eaf8582611e2a565b865550611f21565b601f198416611ec587611ca8565b9650611ed086611c96565b5f5b82811015611ef757848901548255600182019150600185019450602081019050611ed2565b86831015611f145784890154611f10601f891682611e0e565b8355505b6001600288020188555050505b5050505050505b565b7f4e487b71000000000000000000000000000000000000000000000000000000005f52603160045260245ffd5b611f608261173b565b67ffffffffffffffff811115611f7957611f7861154c565b5b611f838254611baa565b611f8e828285611dbc565b5f60209050601f831160018114611fbf575f8415611fad578287015190505b611fb78582611e2a565b86555061201e565b601f198416611fcd86611c96565b5f5b82811015611ff457848901518255600182019150602085019450602081019050611fcf565b86831015612011578489015161200d601f891682611e0e565b8355505b6001600288020188555050505b505050505050565b7f46696c65206e6f742073686172656420776974682075736572000000000000005f82015250565b5f61205a601983611745565b915061206582612026565b602082019050919050565b5f6020820190508181035f8301526120878161204e565b905091905056fea264697066735822122094638152a37e847f142ffe55d98953adaf2cbe53160a3b626f6fad2becf5824e64736f6c63430008140033",
  "linkReferences": {},
  "deployedLinkReferences": {}
}