{
  "_format": "hh-sol-artifact-1",
  "contractName": "Drive",
  "sourceName": "contracts/Drive.sol",
  "abi": [
    {
      "inputs": [
        {
          "internalType": "string",
          "name": "",
          "type": "string"
        },
        {
          "internalType": "uint256",
          "name": "",
          "type": "uint256"
        }
      ],
      "name": "access",
      "outputs": [
        {
          "internalType": "address",
          "name": "",
          "type": "address"
        }
      ],
      "stateMutability": "view",
      "type": "function"
    },
    {
      "inputs": [
        {
          "internalType": "string",
          "name": "",
          "type": "string"
        }
      ],
      "name": "fileOwners",
      "outputs": [
        {
          "internalType": "address",
          "name": "",
          "type": "address"
        }
      ],
      "stateMutability": "view",
      "type": "function"
    },
    {
      "inputs": [
        {
          "internalType": "address",
          "name": "",
          "type": "address"
        },
        {
          "internalType": "uint256",
          "name": "",
          "type": "uint256"
        }
      ],
      "name": "ownedFiles",
      "outputs": [
        {
          "internalType": "string",
          "name": "",
          "type": "string"
        }
      ],
      "stateMutability": "view",
      "type": "function"
    },
    {
      "inputs": [
        {
          "internalType": "address",
          "name": "user",
          "type": "address"
        },
        {
          "internalType": "string",
          "name": "file",
          "type": "string"
        }
      ],
      "name": "revokeAccess",
      "outputs": [],
      "stateMutability": "nonpayable",
      "type": "function"
    },
    {
      "inputs": [
        {
          "internalType": "address",
          "name": "user",
          "type": "address"
        },
        {
          "internalType": "string",
          "name": "file",
          "type": "string"
        }
      ],
      "name": "shareFile",
      "outputs": [],
      "stateMutability": "nonpayable",
      "type": "function"
    },
    {
      "inputs": [
        {
          "internalType": "address",
          "name": "",
          "type": "address"
        },
        {
          "internalType": "uint256",
          "name": "",
          "type": "uint256"
        }
      ],
      "name": "sharedFiles",
      "outputs": [
        {
          "internalType": "string",
          "name": "",
          "type": "string"
        }
      ],
      "stateMutability": "view",
      "type": "function"
    },
    {
      "inputs": [
        {
          "internalType": "address",
          "name": "newOwner",
          "type": "address"
        },
        {
          "internalType": "string",
          "name": "file",
          "type": "string"
        }
      ],
      "name": "transfer",
      "outputs": [],
      "stateMutability": "nonpayable",
      "type": "function"
    },
    {
      "inputs": [
        {
          "internalType": "string",
          "name": "url",
          "type": "string"
        }
      ],
      "name": "uploadFile",
      "outputs": [],
      "stateMutability": "nonpayable",
      "type": "function"
    },
    {
      "inputs": [
        {
          "internalType": "string",
          "name": "file",
          "type": "string"
        }
      ],
      "name": "viewAccessList",
      "outputs": [
        {
          "internalType": "address[]",
          "name": "",
          "type": "address[]"
        }
      ],
      "stateMutability": "view",
      "type": "function"
    },
    {
      "inputs": [],
      "name": "viewOwnedFiles",
      "outputs": [
        {
          "internalType": "string[]",
          "name": "",
          "type": "string[]"
        }
      ],
      "stateMutability": "view",
      "type": "function"
    },
    {
      "inputs": [],
      "name": "viewSharedFiles",
      "outputs": [
        {
          "internalType": "string[]",
          "name": "",
          "type": "string[]"
        }
      ],
      "stateMutability": "view",
      "type": "function"
    }
  ],
  "bytecode": "0x608060405234801561001057600080fd5b506121b9806100206000396000f3fe608060405234801561001057600080fd5b50600436106100a95760003560e01c806382b51b581161007157806382b51b58146101765780638a09c914146101945780639ce01e98146101c4578063b830facb146101e2578063dfa36d5b14610212578063e37ffc301461022e576100a9565b806309886649146100ae57806356041432146100ca578063600d33c8146100fa5780636a44cac91461012a57806371fa46db14610146575b600080fd5b6100c860048036038101906100c3919061170e565b61024a565b005b6100e460048036038101906100df91906117a0565b6106fa565b6040516100f1919061185f565b60405180910390f35b610114600480360381019061010f91906117a0565b6107b3565b604051610121919061185f565b60405180910390f35b610144600480360381019061013f919061170e565b61086c565b005b610160600480360381019061015b9190611881565b610ed9565b60405161016d91906118ec565b60405180910390f35b61017e610f3d565b60405161018b9190611a13565b60405180910390f35b6101ae60048036038101906101a99190611a35565b611053565b6040516101bb9190611b3c565b60405180910390f35b6101cc6110ff565b6040516101d99190611a13565b60405180910390f35b6101fc60048036038101906101f79190611a35565b611215565b60405161020991906118ec565b60405180910390f35b61022c6004803603810190610227919061170e565b61125e565b005b61024860048036038101906102439190611a35565b6113ff565b005b60008160405161025a9190611b9a565b908152602001604051809103902060009054906101000a900473ffffffffffffffffffffffffffffffffffffffff1673ffffffffffffffffffffffffffffffffffffffff163373ffffffffffffffffffffffffffffffffffffffff16146102f6576040517f08c379a00000000000000000000000000000000000000000000000000000000081526004016102ed90611bfd565b60405180910390fd5b816000826040516103079190611b9a565b908152602001604051809103902060006101000a81548173ffffffffffffffffffffffffffffffffffffffff021916908373ffffffffffffffffffffffffffffffffffffffff16021790555060008060005b600160003373ffffffffffffffffffffffffffffffffffffffff1673ffffffffffffffffffffffffffffffffffffffff168152602001908152602001600020805490508110156104bd5761049984600160003373ffffffffffffffffffffffffffffffffffffffff1673ffffffffffffffffffffffffffffffffffffffff16815260200190815260200160002083815481106103f8576103f7611c1d565b5b90600052602060002001805461040d90611c7b565b80601f016020809104026020016040519081016040528092919081815260200182805461043990611c7b565b80156104865780601f1061045b57610100808354040283529160200191610486565b820191906000526020600020905b81548152906001019060200180831161046957829003601f168201915b50505050506114d190919063ffffffff16565b156104aa57600191508092506104bd565b80806104b590611cdb565b915050610359565b506001151581151514610505576040517f08c379a00000000000000000000000000000000000000000000000000000000081526004016104fc90611bfd565b60405180910390fd5b600160003373ffffffffffffffffffffffffffffffffffffffff1673ffffffffffffffffffffffffffffffffffffffff16815260200190815260200160002060018060003373ffffffffffffffffffffffffffffffffffffffff1673ffffffffffffffffffffffffffffffffffffffff168152602001908152602001600020805490506105929190611d23565b815481106105a3576105a2611c1d565b5b90600052602060002001600160003373ffffffffffffffffffffffffffffffffffffffff1673ffffffffffffffffffffffffffffffffffffffff16815260200190815260200160002083815481106105fe576105fd611c1d565b5b9060005260206000200190816106149190611f2e565b50600160003373ffffffffffffffffffffffffffffffffffffffff1673ffffffffffffffffffffffffffffffffffffffff16815260200190815260200160002080548061066457610663612016565b5b60019003818190600052602060002001600061068091906114f9565b9055600160008573ffffffffffffffffffffffffffffffffffffffff1673ffffffffffffffffffffffffffffffffffffffff168152602001908152602001600020839080600181540180825580915050600190039060005260206000200160009091909190915090816106f39190612045565b5050505050565b6003602052816000526040600020818154811061071657600080fd5b9060005260206000200160009150915050805461073290611c7b565b80601f016020809104026020016040519081016040528092919081815260200182805461075e90611c7b565b80156107ab5780601f10610780576101008083540402835291602001916107ab565b820191906000526020600020905b81548152906001019060200180831161078e57829003601f168201915b505050505081565b600160205281600052604060002081815481106107cf57600080fd5b906000526020600020016000915091505080546107eb90611c7b565b80601f016020809104026020016040519081016040528092919081815260200182805461081790611c7b565b80156108645780601f1061083957610100808354040283529160200191610864565b820191906000526020600020905b81548152906001019060200180831161084757829003601f168201915b505050505081565b60008160405161087c9190611b9a565b908152602001604051809103902060009054906101000a900473ffffffffffffffffffffffffffffffffffffffff1673ffffffffffffffffffffffffffffffffffffffff163373ffffffffffffffffffffffffffffffffffffffff1614610918576040517f08c379a000000000000000000000000000000000000000000000000000000000815260040161090f90611bfd565b60405180910390fd5b60008060005b60028460405161092e9190611b9a565b9081526020016040518091039020805490508110156109f3578473ffffffffffffffffffffffffffffffffffffffff1660028560405161096e9190611b9a565b9081526020016040518091039020828154811061098e5761098d611c1d565b5b9060005260206000200160009054906101000a900473ffffffffffffffffffffffffffffffffffffffff1673ffffffffffffffffffffffffffffffffffffffff16036109e057809250600191506109f3565b80806109eb90611cdb565b91505061091e565b506001151581151514610a3b576040517f08c379a0000000000000000000000000000000000000000000000000000000008152600401610a3290612163565b60405180910390fd5b600283604051610a4b9190611b9a565b90815260200160405180910390206001600285604051610a6b9190611b9a565b908152602001604051809103902080549050610a879190611d23565b81548110610a9857610a97611c1d565b5b9060005260206000200160009054906101000a900473ffffffffffffffffffffffffffffffffffffffff16600284604051610ad39190611b9a565b90815260200160405180910390208381548110610af357610af2611c1d565b5b9060005260206000200160006101000a81548173ffffffffffffffffffffffffffffffffffffffff021916908373ffffffffffffffffffffffffffffffffffffffff160217905550600283604051610b4b9190611b9a565b9081526020016040518091039020805480610b6957610b68612016565b5b6001900381819060005260206000200160006101000a81549073ffffffffffffffffffffffffffffffffffffffff02191690559055600091506000905060005b600360008673ffffffffffffffffffffffffffffffffffffffff1673ffffffffffffffffffffffffffffffffffffffff16815260200190815260200160002080549050811015610d0d57610ce984600360008873ffffffffffffffffffffffffffffffffffffffff1673ffffffffffffffffffffffffffffffffffffffff1681526020019081526020016000208381548110610c4857610c47611c1d565b5b906000526020600020018054610c5d90611c7b565b80601f0160208091040260200160405190810160405280929190818152602001828054610c8990611c7b565b8015610cd65780601f10610cab57610100808354040283529160200191610cd6565b820191906000526020600020905b815481529060010190602001808311610cb957829003601f168201915b50505050506114d190919063ffffffff16565b15610cfa5780925060019150610d0d565b8080610d0590611cdb565b915050610ba9565b506001151581151514610d55576040517f08c379a0000000000000000000000000000000000000000000000000000000008152600401610d4c90612163565b60405180910390fd5b600360008573ffffffffffffffffffffffffffffffffffffffff1673ffffffffffffffffffffffffffffffffffffffff1681526020019081526020016000206001600360008773ffffffffffffffffffffffffffffffffffffffff1673ffffffffffffffffffffffffffffffffffffffff16815260200190815260200160002080549050610de39190611d23565b81548110610df457610df3611c1d565b5b90600052602060002001600360008673ffffffffffffffffffffffffffffffffffffffff1673ffffffffffffffffffffffffffffffffffffffff1681526020019081526020016000208381548110610e4f57610e4e611c1d565b5b906000526020600020019081610e659190611f2e565b50600360008573ffffffffffffffffffffffffffffffffffffffff1673ffffffffffffffffffffffffffffffffffffffff168152602001908152602001600020805480610eb557610eb4612016565b5b600190038181906000526020600020016000610ed191906114f9565b905550505050565b6002828051602081018201805184825260208301602085012081835280955050505050508181548110610f0b57600080fd5b906000526020600020016000915091509054906101000a900473ffffffffffffffffffffffffffffffffffffffff1681565b6060600360003373ffffffffffffffffffffffffffffffffffffffff1673ffffffffffffffffffffffffffffffffffffffff168152602001908152602001600020805480602002602001604051908101604052809291908181526020016000905b8282101561104a578382906000526020600020018054610fbd90611c7b565b80601f0160208091040260200160405190810160405280929190818152602001828054610fe990611c7b565b80156110365780601f1061100b57610100808354040283529160200191611036565b820191906000526020600020905b81548152906001019060200180831161101957829003601f168201915b505050505081526020019060010190610f9e565b50505050905090565b60606002826040516110659190611b9a565b90815260200160405180910390208054806020026020016040519081016040528092919081815260200182805480156110f357602002820191906000526020600020905b8160009054906101000a900473ffffffffffffffffffffffffffffffffffffffff1673ffffffffffffffffffffffffffffffffffffffff16815260200190600101908083116110a9575b50505050509050919050565b6060600160003373ffffffffffffffffffffffffffffffffffffffff1673ffffffffffffffffffffffffffffffffffffffff168152602001908152602001600020805480602002602001604051908101604052809291908181526020016000905b8282101561120c57838290600052602060002001805461117f90611c7b565b80601f01602080910402602001604051908101604052809291908181526020018280546111ab90611c7b565b80156111f85780601f106111cd576101008083540402835291602001916111f8565b820191906000526020600020905b8154815290600101906020018083116111db57829003601f168201915b505050505081526020019060010190611160565b50505050905090565b6000818051602081018201805184825260208301602085012081835280955050505050506000915054906101000a900473ffffffffffffffffffffffffffffffffffffffff1681565b60008160405161126e9190611b9a565b908152602001604051809103902060009054906101000a900473ffffffffffffffffffffffffffffffffffffffff1673ffffffffffffffffffffffffffffffffffffffff163373ffffffffffffffffffffffffffffffffffffffff161461130a576040517f08c379a000000000000000000000000000000000000000000000000000000000815260040161130190611bfd565b60405180910390fd5b60028160405161131a9190611b9a565b9081526020016040518091039020829080600181540180825580915050600190039060005260206000200160009091909190916101000a81548173ffffffffffffffffffffffffffffffffffffffff021916908373ffffffffffffffffffffffffffffffffffffffff160217905550600360008373ffffffffffffffffffffffffffffffffffffffff1673ffffffffffffffffffffffffffffffffffffffff168152602001908152602001600020819080600181540180825580915050600190039060005260206000200160009091909190915090816113fa9190612045565b505050565b336000826040516114109190611b9a565b908152602001604051809103902060006101000a81548173ffffffffffffffffffffffffffffffffffffffff021916908373ffffffffffffffffffffffffffffffffffffffff160217905550600160003373ffffffffffffffffffffffffffffffffffffffff1673ffffffffffffffffffffffffffffffffffffffff168152602001908152602001600020819080600181540180825580915050600190039060005260206000200160009091909190915090816114cd9190612045565b5050565b6000815183511480156114f1575081805190602001208380519060200120145b905092915050565b50805461150590611c7b565b6000825580601f106115175750611536565b601f0160209004906000526020600020908101906115359190611539565b5b50565b5b8082111561155257600081600090555060010161153a565b5090565b6000604051905090565b600080fd5b600080fd5b600073ffffffffffffffffffffffffffffffffffffffff82169050919050565b60006115958261156a565b9050919050565b6115a58161158a565b81146115b057600080fd5b50565b6000813590506115c28161159c565b92915050565b600080fd5b600080fd5b6000601f19601f8301169050919050565b7f4e487b7100000000000000000000000000000000000000000000000000000000600052604160045260246000fd5b61161b826115d2565b810181811067ffffffffffffffff8211171561163a576116396115e3565b5b80604052505050565b600061164d611556565b90506116598282611612565b919050565b600067ffffffffffffffff821115611679576116786115e3565b5b611682826115d2565b9050602081019050919050565b82818337600083830152505050565b60006116b16116ac8461165e565b611643565b9050828152602081018484840111156116cd576116cc6115cd565b5b6116d884828561168f565b509392505050565b600082601f8301126116f5576116f46115c8565b5b813561170584826020860161169e565b91505092915050565b6000806040838503121561172557611724611560565b5b6000611733858286016115b3565b925050602083013567ffffffffffffffff81111561175457611753611565565b5b611760858286016116e0565b9150509250929050565b6000819050919050565b61177d8161176a565b811461178857600080fd5b50565b60008135905061179a81611774565b92915050565b600080604083850312156117b7576117b6611560565b5b60006117c5858286016115b3565b92505060206117d68582860161178b565b9150509250929050565b600081519050919050565b600082825260208201905092915050565b60005b8381101561181a5780820151818401526020810190506117ff565b60008484015250505050565b6000611831826117e0565b61183b81856117eb565b935061184b8185602086016117fc565b611854816115d2565b840191505092915050565b600060208201905081810360008301526118798184611826565b905092915050565b6000806040838503121561189857611897611560565b5b600083013567ffffffffffffffff8111156118b6576118b5611565565b5b6118c2858286016116e0565b92505060206118d38582860161178b565b9150509250929050565b6118e68161158a565b82525050565b600060208201905061190160008301846118dd565b92915050565b600081519050919050565b600082825260208201905092915050565b6000819050602082019050919050565b600082825260208201905092915050565b600061194f826117e0565b6119598185611933565b93506119698185602086016117fc565b611972816115d2565b840191505092915050565b60006119898383611944565b905092915050565b6000602082019050919050565b60006119a982611907565b6119b38185611912565b9350836020820285016119c585611923565b8060005b85811015611a0157848403895281516119e2858261197d565b94506119ed83611991565b925060208a019950506001810190506119c9565b50829750879550505050505092915050565b60006020820190508181036000830152611a2d818461199e565b905092915050565b600060208284031215611a4b57611a4a611560565b5b600082013567ffffffffffffffff811115611a6957611a68611565565b5b611a75848285016116e0565b91505092915050565b600081519050919050565b600082825260208201905092915050565b6000819050602082019050919050565b611ab38161158a565b82525050565b6000611ac58383611aaa565b60208301905092915050565b6000602082019050919050565b6000611ae982611a7e565b611af38185611a89565b9350611afe83611a9a565b8060005b83811015611b2f578151611b168882611ab9565b9750611b2183611ad1565b925050600181019050611b02565b5085935050505092915050565b60006020820190508181036000830152611b568184611ade565b905092915050565b600081905092915050565b6000611b74826117e0565b611b7e8185611b5e565b9350611b8e8185602086016117fc565b80840191505092915050565b6000611ba68284611b69565b915081905092915050565b7f596f7520617265206e6f7420746865206f776e6572206f662066696c65000000600082015250565b6000611be7601d836117eb565b9150611bf282611bb1565b602082019050919050565b60006020820190508181036000830152611c1681611bda565b9050919050565b7f4e487b7100000000000000000000000000000000000000000000000000000000600052603260045260246000fd5b7f4e487b7100000000000000000000000000000000000000000000000000000000600052602260045260246000fd5b60006002820490506001821680611c9357607f821691505b602082108103611ca657611ca5611c4c565b5b50919050565b7f4e487b7100000000000000000000000000000000000000000000000000000000600052601160045260246000fd5b6000611ce68261176a565b91507fffffffffffffffffffffffffffffffffffffffffffffffffffffffffffffffff8203611d1857611d17611cac565b5b600182019050919050565b6000611d2e8261176a565b9150611d398361176a565b9250828203905081811115611d5157611d50611cac565b5b92915050565b600081549050611d6681611c7b565b9050919050565b60008190508160005260206000209050919050565b60008190508160005260206000209050919050565b60006020601f8301049050919050565b600082821b905092915050565b600060088302611de47fffffffffffffffffffffffffffffffffffffffffffffffffffffffffffffffff82611da7565b611dee8683611da7565b95508019841693508086168417925050509392505050565b6000819050919050565b6000611e2b611e26611e218461176a565b611e06565b61176a565b9050919050565b6000819050919050565b611e4583611e10565b611e59611e5182611e32565b848454611db4565b825550505050565b600090565b611e6e611e61565b611e79818484611e3c565b505050565b5b81811015611e9d57611e92600082611e66565b600181019050611e7f565b5050565b601f821115611ee257611eb381611d6d565b611ebc84611d97565b81016020851015611ecb578190505b611edf611ed785611d97565b830182611e7e565b50505b505050565b600082821c905092915050565b6000611f0560001984600802611ee7565b1980831691505092915050565b6000611f1e8383611ef4565b9150826002028217905092915050565b818103611f3c575050612014565b611f4582611d57565b67ffffffffffffffff811115611f5e57611f5d6115e3565b5b611f688254611c7b565b611f73828285611ea1565b6000601f831160018114611fa25760008415611f90578287015490505b611f9a8582611f12565b86555061200d565b601f198416611fb087611d82565b9650611fbb86611d6d565b60005b82811015611fe357848901548255600182019150600185019450602081019050611fbe565b868310156120005784890154611ffc601f891682611ef4565b8355505b6001600288020188555050505b5050505050505b565b7f4e487b7100000000000000000000000000000000000000000000000000000000600052603160045260246000fd5b61204e826117e0565b67ffffffffffffffff811115612067576120666115e3565b5b6120718254611c7b565b61207c828285611ea1565b600060209050601f8311600181146120af576000841561209d578287015190505b6120a78582611f12565b86555061210f565b601f1984166120bd86611d6d565b60005b828110156120e5578489015182556001820191506020850194506020810190506120c0565b8683101561210257848901516120fe601f891682611ef4565b8355505b6001600288020188555050505b505050505050565b7f46696c65206e6f74207368617265642077697468207573657200000000000000600082015250565b600061214d6019836117eb565b915061215882612117565b602082019050919050565b6000602082019050818103600083015261217c81612140565b905091905056fea26469706673582212204d84423d38eadc5d0b4be3843d7de71c89b3a4bf144dc5aae0025e217696995564736f6c63430008140033",
  "linkReferences": {},
  "deployedLinkReferences": {}
}